:020000021000EC
:10000000F8D500202D190100CB6401000119010071
:100010000119010001190100011901000119010074
:100020000000000000000000000000005516010064
:100030000119010000000000FD1501000119010077
:10004000D5160100D5160100D5160100D516010000
:10005000D5160100D5160100D5160100D5160100F0
:10006000D5160100D5160100D5160100D5160100E0
:10007000D5160100D5160100D5160100D5160100D0
:10008000D5160100D5160100D5160100D5160100C0
:10009000D5160100D5160100D5160100D5160100B0
:1000A000D5160100D5160100D5160100D5160100A0
:1000B000412B0100D5160100D5160100D51601000F
:1000C000D5160100D5160100D5160100D516010080
:1000D000D5160100D5160100D5160100D516010070
:1000E000D5160100D5160100D5160100D516010060
:1000F000D5160100D5160100D5160100D516010050
:10010000D5160100D5160100D5160100D51601003F
:10011000D5160100D5160100D5160100D51601002F
:10012000D5160100D5160100D5160100D51601001F
:10013000D5160100D5160100D5160100D51601000F
:10014000D5160100000000000000000000000000C3
:10015000000000000000000000000000000000009F
:10016000000000000000000000000000000000008F
:10017000000000000000000000000000000000007F
:10018000000000000000000000000000000000006F
:10019000000000000000000000000000000000005F
:1001A000000000000000000000000000000000004F
:1001B000000000000000000000000000000000003F
:1001C000000000000000000000000000000000002F
:1001D000000000000000000000000000000000001F
:1001E000000000000000000000000000000000000F
:1001F00000000000000000000000000000000000FF
:10020000DEE61E284CBBCE8F025B00003C000000E7
:10021000F476000001000000000001000000010071
:10022000FFFF02910000000000000000000000003D
:0C023000000000000000000000000000C2
:10023C0053B94AB9002908BF00281CBF4FF0FF3141
:10024C004FF0FF3000F070B9ADF1080C6DE904CE41
:10025C0000F006F8DDF804E0DDE9022304B0704795
:10026C002DE9F047089E0D4604468A46002B7FD1A7
:10027C008A42174641D9B2FA82F24AB1C2F1200140
:10028C0005FA02F39740944020FA01F141EA030A7F
:10029C004FEA17484FEA144C1FFA87F9BAFBF8FEDD
:1002AC0008FB1EA30EFB09F14CEA0343994206D945
:1002BC00FB1802D2994200F224810EF1FF3E591A2A
:1002CC00A3B2B1FBF8F008FB101100FB09F943EAEB
:1002DC000144A14505D93C1902D2A14500F20E8179
:1002EC000138A4EB090440EA0E4000211EB1D440B1
:1002FC000023C6E90043BDE8F08702B9FFDEB2FA7D
:10030C0082F2002A4FD1CB1B4FEA174E1FFA87F807
:10031C000121250CB3FBFEFC0EFB1C302B4608FB0D
:10032C000CF945EA0045A9450AD97D192CBF0123D2
:10033C000023A94502D9002B00F0D9800CF1FF3C19
:10034C00A5EB0905A3B2B5FBFEF00EFB105508FB9F
:10035C0000F843EA0544A04505D93C1902D2A04552
:10036C0000F2C9800138A4EB080440EA0C40BDE758
:10037C008B4208D9002E00F0B1800021C6E900059F
:10038C000846BDE8F087B3FA83F1002946D1AB42A9
:10039C00C0F0A780824240F2A4800846002EAAD06A
:1003AC00C6E9004AA7E7C2F12000974001FA02F320
:1003BC004FEA174EC14024FA00F51FFA87F8944013
:1003CC001D43B1FBFEF02B0C0EFB101100FB08FCC7
:1003DC0043EA01439C4509D9FB182CBF012100219C
:1003EC009C4502D9002900F095800138A3EB0C0341
:1003FC00ADB2B3FBFEF10EFB113301FB08FC45EA79
:10040C000345AC4505D97D1902D2AC4500F2898073
:10041C000139A5EB0C0341EA00417AE7C1F1200454
:10042C008B4002FA01F705FA01FCE24020FA04F8CD
:10043C00E54000FA01FE134348EA0C024FEA134868
:10044C004FEA124C1FFA83F9B5FBF8FA08FB1A5560
:10045C000AFB09F04CEA054C60450AD913EB0C0C6D
:10046C002CBF01250025604501D9002D55D00AF17E
:10047C00FF3AACEB000C92B2BCFBF8F008FB10CCD2
:10048C0000FB09F942EA0C4CE14505D913EB0C0CC5
:10049C0001D2E1453BD8013840EA0A40ACEB090CEB
:1004AC00A0FB0789CC4545464A4602D306D1C64532
:1004BC0004D20138B8EB070569EB03022EB3BEEB8F
:1004CC0005036CEB020C23FA01F20CFA04F42CFA7F
:1004DC0001F300211443C6E900430CE731463046D2
:1004EC0009E7841A65EB030301209A4656E7ACF141
:1004FC00020C3D4424E702383C4434E702383C44C7
:10050C00EFE6AEF1020E3B44D9E63146F3E6023893
:10051C009C44C1E702383B4468E7AAF1020A9C44B8
:10052C00A7E702393D4474E7704700BF08B500F0F7
:10053C008BF8BDE80840014806F004BDB0C50020AA
:10054C00012807B51DD1012A11D101290CD114485C
:10055C0005F093FC00F06AF84FF4004200231148B8
:10056C00CDE9002305F0C2FB03B05DF804FB002AC3
:10057C00FAD10129F8D10C4803B05DF804EB05F071
:10058C007CBC0228F0D1012A03D10129ECD1074807
:10059C00DEE7002AE8D10129E6D10548ECE700BFE7
:1005AC00EC730100B0C5002000740100147401004C
:1005BC002874010013B50C4C0C4805F05EFC00F0DF
:1005CC001BF8002220460A4906F0B0FC43F23432F4
:1005DC0000232046CDE9002305F088FB054802B036
:1005EC00BDE8104000F0E8B8B0C500203C74010034
:1005FC00390501004D05010010B50A4804F0B0FBA7
:10060C00094A106060B1BDE8104002698168136846
:10061C0023F0040313600B684FF420620221184787
:10062C0010BD00BF4974010008C80020054B1868B4
:10063C0003691B685B0783684FF0040154BFDB68D8
:10064C001B69184708C80020054B186803691B680C
:10065C005B0783684FF0040154BF1B69DB681847C4
:10066C0008C8002004488368DB6913B101220349E0
:10067C0018476FF085007047007001000CC800200F
:10068C00402A07B50DD10D4B1B683BB140F63E22FD
:10069C000023CDE900230A4805F028FB03B05DF8E0
:1006AC0004FB802AFAD1054B1B68002BF6D040F6D0
:1006BC003E2200230348CDE90023EDE718C80020B3
:1006CC0020C6002090C60020062108B5074805F07A
:1006DC0093FB0128024608D1054B01461B6898473D
:1006EC00BDE80840034806F02DBC08BD00700100B1
:1006FC0018C80020E8C50020072108B5084805F0F7
:10070C007BFB0128024609D1064B01461B680220DF
:10071C009847BDE80840044806F014BC08BD00BF6B
:10072C000070010018C8002058C6002007B506212B
:10073C000B4805F061FB012801460ED1094B002244
:10074C001B689847084806F0FDFB4FF480320023E5
:10075C000648CDE9002305F0C9FA03B05DF804FBA7
:10076C000070010018C8002020C60020E8C5002039
:10077C0007B507210C4805F03FFB012801460FD1B6
:10078C000A4B002202201B689847094806F0DAFB46
:10079C004FF4803200230748CDE9002305F0A6FA78
:1007AC0003B05DF804FB00BF0070010018C8002006
:1007BC0090C6002058C6002038B5044600222E49A9
:1007CC002E4806F0B3FB00222D492E4806F0AEFB56
:1007DC0000222D492D4806F0A9FB00222C492D485A
:1007EC0006F0A4FB2C4B1C602C4D284606F07EF921
:1007FC00E0B140F211120621284605F0E3FA044656
:10080C0030B1062321462A68254805F036FB13E053
:10081C00244805F005FB044620B1062321462A682E
:10082C002148F2E7284606F061F938B929681F48D3
:10083C0005F023FB4FF0FF34204638BD40F2111277
:10084C000721284605F0BEFA044608B10723D9E76C
:10085C00174805F0E5FA044608B10723DEE7154B07
:10086C00154A5A60C0229A60FFF7FCFEFFF7FAFEA9
:10087C00124805F002FBDFE7D5060100E8C50020B1
:10088C000507010058C600203907010020C60020CA
:10089C007D07010090C6002018C8002000700100E0
:1008AC0076740100987201009F740100507401006D
:1008BC00A07201000CC800208D060100D574010047
:1008CC000B6801330B60014B1B68184700C50020F7
:1008DC00014B1860704700BF00C5002007B50B46E0
:1008EC00002102460191034801A900F0EBF803B086
:1008FC005DF804FBCD0801002DE9F84FB0F8189015
:10090C00044619F0080893460DD001290CBF49F094
:10091C00100949F02009A0F818908BF31188BFF347
:10092C006F8FBDE8F88F09F00709022907D120461F
:10093C0005F0B0FA0028F0D00128238B50D167695C
:10094C00218B002F15DA256821F00701C4E90088F6
:10095C0041F0010121830026218B01F0070ACA45D1
:10096C0002D0A368002B5CD10DB9002E74D00023EB
:10097C0058E001F007035A1F012A20D821F0070183
:10098C00062B256889B2C4E900880CD1002D2B46B2
:10099C0038BF00232BB1628B1B6801326283002BA2
:1009AC00F8D141F002012046218305F073FA064686
:1009BC000028D1D0238B43F020032383CBE7042BD7
:1009CC000CD121F0070189B22046218305F062FA8F
:1009DC0005460028BFD041F0200121830025BAE74D
:1009EC00032809D1226923F00703166843F0060394
:1009FC00002523832F46AFE7042806D1226923F074
:100A0C000703566843F00403F2E7052806D1226970
:100A1C0023F00703966843F00503E9E700252E460B
:100A2C00E8E7012341F0080121838BF31188BFF320
:100A3C006F8F03BB002D33D116B120462049B04730
:100A4C004FF02003EFF3118B83F31288BFF36F8FFA
:100A5C00238B23F008032383238BDA0628D501216B
:100A6C0023F010032383B4F8189009F00709002928
:100A7C007FF45BAF51E7A1680029DBD00B68002B3A
:100A8C0038BF0023994652463B462046D1F804B065
:100A9C00D847B9F1000FCDD04946D9F80030EEE770
:100AAC0029463B46524620462D6805F00FFAC1E711
:100ABC0013F020011EBF23F0200302212383D2E771
:100ACC00055F01002DE9F04F8B4692461C46002530
:100ADC0091B002909AF8000008B928465EE32528E8
:100AEC000AF1010707D05946029B98470028C0F22B
:100AFC005583013510E2182200210AA805F049FDA2
:100B0C009AF80130252B78D000229446164696464A
:100B1C001046394617F8013B2B2B00F09D8000F254
:100B2C009480202B00F09B80232B00F09A8028B11E
:100B3C009DF8300040F004008DF83000BEF1000F3D
:100B4C0005D09DF8300040F008008DF830002EB133
:100B5C009DF8300040F010008DF83000BCF1000F13
:100B6C0005D09DF8300040F020008DF830002AB1FF
:100B7C009DF8302042F040028DF830209DF8302056
:100B8C0002F04400442803D16FF386128DF8302014
:100B9C009DF830202A2B42F080028DF830207BD13A
:100BAC009DF831204B1C42F001028DF831201A784F
:100BBC002E2A0CBF012100219DF8312061F3410246
:100BCC008DF8312074D15A782A2A6AD000210A264D
:100BDC000133184610F8012BA2F13007092F40F20F
:100BEC008E809DF830200E91C2F3400040EAD17106
:100BFC0061F341028DF830205AE00AF102078DF8BA
:100C0C0033309DF83130D90740F1498154F8049BB9
:100C1C00B9F1000F07DA9DF83020C9F1000942F054
:100C2C0004028DF830205A0740F1428154F8048BAD
:100C3C00B8F1000F80F241819DF831306FF3410320
:100C4C008DF831304FF0FF3837E12D2B0CD0302B95
:100C5C007FF46DAF01225CE74FF0010E59E70126DE
:100C6C0057E74FF0010C54E7012052E733460CFBD9
:100C7C000202303A1E4616F8010BA0F13007092F7C
:100C8C00F4D9994293D09DF830100D92D20F62F3A3
:100C9C0041018DF830108AE70B4600224FF00A0C08
:100CAC00E8E79DF83120023342F004028DF8312040
:100CBC001F4617F8012B6C2A41D025D8682A2BD057
:100CCC006A2A46D04C2A4CD01F4617F8012B9DF8A7
:100CDC003130782A8DF8332000F2D980572A4DD83C
:100CEC00412A03D0453A022A00F2D18004229DF811
:100CFC00323062F302038DF8323001239EE006FBA2
:100D0C0001210346303964E7742A26D07A2ADBD1D4
:100D1C0006229DF831300DE05A78682A9DF8312072
:100D2C0006D1012161F3C6028DF831209F1CCCE75E
:100D3C001346022262F3C6038DF83130C5E75A78A8
:100D4C006C2A9DF8312001D10421EBE713460322D4
:100D5C00F0E705229DF83130ECE707229DF83130A1
:100D6C00E8E7BDF8303023F4F04323F0020343F4FA
:100D7C00804343F00203ADF83030A6E7A2F15801EE
:100D8C00202900F2848001A050F821F05D0E0100B2
:100D9C009B0E01009B0E01009B0E01009B0E01009F
:100DAC009B0E01009B0E01009B0E01009B0E01008F
:100DBC00F90C01009B0E01005D0E01001D0E0100DF
:100DCC00F90C0100F90C0100F90C01009B0E01005B
:100DDC001D0E01009B0E01009B0E01009B0E0100DD
:100DEC009B0E0100650E01005D0E0100810E0100DD
:100DFC009B0E01009B0E0100810E01009B0E010059
:100E0C005D0E01009B0E01009B0E01005D0E0100AA
:100E1C0001209DF8321003F0780360F30201402B9F
:100E2C008DF8321002BF9DF8301041F001018DF8A1
:100E3C003010632A31D1003B18BF01239DF83020BC
:100E4C00C2F340010B4363F341028DF83020D8E626
:100E5C0002209DF83210DEE703219DF8322003F0CA
:100E6C007803A3F1400061F3020243428DF8322073
:100E7C004341E3E703219DF8322013F0780F61F32F
:100E8C00020214BF012300238DF83220D6E79DF80F
:100E9C00303043F001038DF830300023CEE79DF95C
:100EAC003020002AACBF4FF0FF39DDF83490BAE6A1
:100EBC009B077FF5C7AEDDF838800023CDE90D33F5
:100ECC009DF832309DF8312003F00703012BC2F35B
:100EDC00C30236D1D31E042B20D8DFE803F003075E
:100EEC00071F1F0054F8040BC11704E0073424F04B
:100EFC000704F4E80201CDE90A019DF8303013F043
:100F0C00030654D03B4652465946029805F087FAE0
:100F1C000028C0F243810544BA46DBE554F8040BC3
:100F2C00012A4FEAE071CDE90A0105D19DF828307C
:100F3C000A9300230B93E0E7022ADED1BDF92800C7
:100F4C00D2E7022B23D1D31E042B13D8DFE803F0F6
:100F5C00030A0A12120000212068231D0A900B912B
:100F6C001C46CAE7073424F00703F3E80201CDE975
:100F7C000A01F5E754F8043B012A0A934FF00003E9
:100F8C000B93D3D0022AB8D1BDF82830D0E7042B6C
:100F9C0007D1073424F00704F4E80201CDE90A0173
:100FAC00ABE7032B04BF54F8043B0A93A5E79DF869
:100FBC0033007828B0D8622822D825283FF493AD86
:100FCC005828A9D1DDE90A010DF1260300930CAADA
:100FDC0004AB05F0D9F98246B8F1000F0DF12600EB
:100FEC000CDB9DF83020A0EB0A036FF386129845BA
:100FFC008DF8302002D9A8EB03030D9380463DE019
:10100C006338152888D801A151F820F099100100F7
:10101C00FD100100250F0100250F0100250F010017
:10102C00250F0100FD100100250F0100250F010007
:10103C00250F0100250F01005B1101002911010092
:10104C002D110100250F0100250F01007110010069
:10105C00250F010029110100250F0100250F0100AA
:10106C0029110100B8F1000FDDF828A00ADB414678
:10107C00504605F05EFA00260AEB0008BAF1000FA4
:10108C000CD149E7504605F04DFAF4E700260A9BCF
:10109C000DF111088DF810300DF1100AA8EB0A03B0
:1010AC0006B101339DF83220D0066BD502335206BF
:1010BC000D9948BF0E9A0B4448BF9B18B9F1000F0D
:1010CC0079DD9DF83020A9EB0309C2F3800303936B
:1010DC00530770D4500664D546B159463046029B2E
:1010EC00984700285ADB039B01351E46302359E0F4
:1010FC001E0711D413F0100618BF2026DDE90A23B1
:10110C00002A73F10001BFF65DAF524263EB43035B
:10111C002D26CDE90A2355E72B26EFE7002651E7CC
:10112C000A9848B30DF126030093002104AB0CAAD6
:10113C0005F02AF9BDF83230824603F0EF0343F490
:10114C00F04343F010030026ADF8323044E70A9B1D
:10115C00072A3FF6E1AEDFE802F00D04060D0808A1
:10116C000D0D1D70D8E61D80D6E62846E917C3E99B
:10117C000001D1E61D60CFE6DFF8C4800646A8F179
:10118C00050A8BE7110748BF013390E71846039314
:10119C005946029B98470028039B04DA11B0BDE81E
:1011AC00F08F20234D444A46002AA5EB090109F192
:1011BC00FF39EBDC0D4636B159463046029B984759
:1011CC000028EBDB01359DF83230D90601D41A0723
:1011DC0006D559463020029B98470028DEDB0135A6
:1011EC009DF83230DB0607D559469DF83300029B3B
:1011FC0098470028D2DB01350D9E2E44731B002B23
:10120C0016DC434652465946029805F008F9002868
:10121C00C4DB0544A944A9EB0503002B7FF77CAE86
:10122C0059462020029B98470028B7DB0135F2E78E
:10123C0059463020029B98470028AFDB0135DDE78B
:10124C00F77401004FF02002EFF3118382F3128840
:10125C00BFF36F8F0121044AC2F8401583F3118844
:10126C00BFF36F8F002070470090034020B1034BF9
:10127C00800143F001031847704700BF90720100D2
:10128C002DE9F84305464FF02003EFF3118683F365
:10129C001288BFF36F8F104B1C68002C38BF0024D2
:1012AC009CB14FF00C090D4FDFF83480D4E90132BA
:1012BC00002D08BF13462BB198F8142009FB02F23D
:1012CC00B85C98472468002CF0D186F31188BFF3E2
:1012DC006F8FBDE8F88300BF1CC8002028C8002011
:1012EC0078CC0020012200F01F039A40084B4009E3
:1012FC0003EB8000D0E8EF3F43EA0201C0E8EC1FAB
:10130C00BCF1000FF6D11A4214BF01200020704727
:10131C0034C80020012230B51A4B85B01D7D05F074
:10132C001F039A40D043184B690903EB8103D3E8A0
:10133C00EF1F01EA0004C3E8EC4FBCF1000FF6D13B
:10134C00114217D00C22114C01AB02FB054207CA0B
:10135C0083E807000E4A7AB193E8070005F089F894
:10136C000020FFF78DFF0C2300226B43E118E250A5
:10137C00C1E9012205B030BD82F31188BFF36F8F34
:10138C00EEE700BF78CC002024C8002028C800203D
:10139C007F6401002DE9F041334B07461C7D88B07A
:1013AC002046FFF79FFFDFF8D88060B90C256E460A
:1013BC0005FB04853A462146304605F065F896E86B
:1013CC00070085E807000C23634318F8030008EBBB
:1013DC000302650904F01F06A8B37B1C0FD04FF461
:1013EC00004C0021D2F808E020480023ECFB0E0151
:1013FC001F4AFEF71DFF0121381A05F04AFD03F0C4
:10140C00B9FF0120FFF73CFF01221A4BB24003EB5E
:10141C008503D3E8EF1F1143C3E8E01F0028F8D180
:10142C000C2303FB048405AB94E8070083E8070056
:10143C00114A1AB193E8070005F008F8FFF76AFFA4
:10144C0004F072F901200123B340DB430B4A02EB99
:10145C008505D5E8EF2F1A40C5E8E12F0029F8D112
:10146C0008B0BDE8F08100BF78CC00203F420F00EF
:10147C0040420F0024C800205964010034C80020E9
:10148C0028C8002008B503F075FFBDE808400148E6
:10149C0005F020B838C8002008B5034805F01BF843
:1014AC00BDE8084004F040B938C8002001491022BA
:1014BC000A60704710ED00E072B6404080F311886E
:1014CC00BFF36F8FBFF34F8F30BF62B6BFF36F8F19
:1014DC00704700BF72B6494081F3118820BF80F37A
:1014EC00118862B6704700BF43B2002B08DB0122A3
:1014FC0000F01F0002FA00F0024A5B0942F82300D8
:10150C00704700BF00E100E0054B420953F8222070
:10151C00012300F01F0003FA00F01040704700BFD9
:10152C0000E100E043B2002B01F10101ACBF03F17B
:10153C006043064B4FEA4111C9B2ABBF03F561439F
:10154C0000F00F0083F800131954704714ED00E0FD
:10155C0008B572B6044B9A691AB100229A6105F06B
:10156C0066FB62B608BD00BF78CC002030BFFFF729
:10157C00FDBF00BF0F4A08B50F4B22F07F029A60E7
:10158C00BFF34F8FBFF36F8FD3F8882022F4700214
:10159C00C3F88820EFF3148323F0040383F3148837
:1015AC00BFF36F8F03F04CFC04F0E6F900F0ACF9DC
:1015BC0003F050FC0000010000ED00E0094A0A496C
:1015CC00936809685867996708494B6843F08053DA
:1015DC004B60002383F31188BFF36F8F9368986F70
:1015EC00704700BF78CC0020E873010000ED00E0EC
:1015FC0013498A684FF030001044EFF3098C80E8EF
:10160C00F01F202080F31288BFF36F8F0D4F4FF027
:10161C000066CA698A603E60506F0023536780F38E
:10162C00118802F1300090E8F01F8CF3098802F168
:10163C00000004B504F04AFFBDE804407047000008
:10164C0078CC002004ED00E01EF0040F0CBFEFF38B
:10165C000880EFF30980816911F8021C0229FFD080
:10166C0001B504F024FF01BD42F8203C009B0B495E
:10167C0042F81C3C019B21F0010142F8183C029BF2
:10168C0042F8081C42F8143C4FF0807342F8043CBA
:10169C000023203A02654367704700BFF75F0100E3
:1016AC00084B9860436E83F30B88104681F30988CE
:1016BC00002163B681F31188BFF36F8F00220023E2
:1016CC0004F093FC78CC002001B572B60B4A9069FB
:1016DC0000281EBF0021916105F0A9FA62B6EFF354
:1016EC000580A0F110004FEAC0000549014409C96A
:1016FC009847BDE8014003490847000078CC00201A
:10170C004870010015170100044B9968D86988428C
:10171C0003D003494FF080520A60704778CC002008
:10172C0004ED00E00E4B9A6A9A6A9A6A920708D501
:10173C005A6B9A6A120604D518B19A6A22F0800282
:10174C009A620020064B9A6A9A6A9A6AD20658BF25
:10175C009A6A9A6A42F0FF029A620870704700BF58
:10176C0000ED00E00D4B9A6A9A6A9A6A920508D5C8
:10177C009A6B9A6A120404D518B19A6A22F4004240
:10178C009A620020054B9A6A9A6AD20558BF9A6AE7
:10179C009A6A42F47F429A620870704700ED00E04A
:1017AC00094B9A6A9A6A986A9A6A9A6A9A6A9A6ABF
:1017BC009A6A10F480106FEA02426FEA124218BF64
:1017CC0002209A62704700BF00ED00E070B5404BFC
:1017DC0005465B6800268AB0C3F3080386F31188BC
:1017EC00BFF36F8F02F07F40B0F17F4F16D1D4075B
:1017FC0014D4500603D4120704D4012604E012F0CA
:10180C00040601D00D4600260022033B8DF807206C
:10181C00032B56D8DFE803F0044D514A3546F3E765
:10182C002B4BDC6A14F002044BD1DA6A002A17DB6A
:10183C00DB6A5B0014D5AB6933F8022C4DF60273EE
:10184C009A420CD003F1604303F626631B78FBB17C
:10185C0001200DF10701FFF765FF044600E02C683D
:10186C009DF8073093B92022294602A804F086FE81
:10187C00099B46B3C3F3080222B96FEA53236FEAFC
:10188C0043230993204602A904F00FFE0AB070BD51
:10189C00104B1B782BB101200DF10701FFF762FFF4
:1018AC00DBE70D4B1B889BB2002BD9D0FFF778FFE1
:1018BC00D3E700200DF10701CDE700200DF1070162
:1018CC00ECE70024CCE723F4FF7323F00103D8E703
:1018DC0000ED00E029ED00E02AED00E0044B5A6930
:1018EC0042F010025A615A6942F480625A617047A0
:1018FC0000ED00E0EFF30880EFF3098101B57246CB
:10190C00FFF764FF01BD00BF002320210348C2186C
:10191C000133412B82F80013F9D1704700E100E04C
:10192C0005F02EFB202080F3118808484FF400614D
:10193C00401880F30988EFF314800221084380F3E8
:10194C001488BFF36F8FFFF715FE000038D7002007
:10195C00BFF34F8F0549064BCA6802F4E06213438C
:10196C00CB60BFF34F8F00BFFDE700BF00ED00E081
:10197C000400FA05064B9B68834207D1EFF30583FD
:10198C0023B1044A536843F08053536003F0A2BF61
:10199C0078CC002000ED00E01FB5094C094A234625
:1019AC000121094800F0DCF800230393074B0121C7
:1019BC00E41A01A80193029400F0DCF804B010BD05
:1019CC000000042000C50020A8720100B0C5002052
:1019DC0010B50B680C7A23F01F0204F01F031A4396
:1019EC00CB68640923F01F03044943EA440343F022
:1019FC0001038860CA600B6110BD00BF90ED00E070
:101A0C002DE9F04F8846144606464FF000094A4D22
:101A1C0085B0C14505DA7768BFB31F2F05D86FF0C5
:101A2C001504204605B0BDE8F08FFB06F7D1D6F8BB
:101A3C0000A01AF01F0FF2D1504604F04DFD834662
:101A4C0007EB0A00013804F047FD8345E7D11BF191
:101A5C00160FE4D0631E5B45E1DBC5F808B0E968FE
:101A6C00C5F808B02F6921F01F01D6E900321A44DD
:101A7C00994247F01F0702F1FF3A1CD1574508D194
:101A8C0031465FFA8BF004F030FD09F101090C3698
:101A9C00BFE73146C5F808B0EB6822F01F0203F02F
:101AAC001F031A43EA60E0B204F01FFD10F1160F99
:101ABC00B5D0441CE9E7013B5745E0B223F01F03C6
:101ACC00C5F808B006D12A69314602F01F0213434B
:101ADC002B61E9E7296901F01F010B432B613146AA
:101AEC0004F003FD10F1160F99D0C5F808B0EA68A0
:101AFC009DF80830013F62F304038DF808302B6920
:101B0C009DF808205B0863F347128DF80820D6E98E
:101B1C0000321344009323F01F033B44441CA3EBFB
:101B2C000A0AE0B22AF01F030F2803933FF677AF9F
:101B3C006946FFF74DFFBCE790ED00E00522034B33
:101B4C005A60BFF34F8FBFF36F8F704790ED00E07B
:101B5C00BFF35F8F0022014B5A60704790ED00E09D
:101B6C0010B5034C2278FFF74BFF207010BD00BF5F
:101B7C00BECC00202DE9F74F264D8A4606464FF085
:101B8C000008AB46244FD0451BDAD6F80490B9F1C7
:101B9C00000F39D031680846019104F09DFC019981
:101BAC00044609EB0100013804F096FC84424FF026
:101BBC0014021A4B08D06FF0150302FB08F84BF80F
:101BCC00083003B0BDE8F08F14F1160F2C60F8D07C
:101BDC001978A142F5DD02FB08B0BC60BC60FC6862
:101BEC0000F10801007B64F30400087138690C797A
:101BFC00400860F347140C71F96821F01F0169600B
:101C0C00396921F01F01296108F1010814350C36DE
:101C1C00B9E700BFC0C8002090ED00E0BECC0020AA
:101C2C0038B50E4C2568102D14D8FFF791FF002005
:101C3C000B4B0C4A1A63854205D10B4B1D70FFF7F9
:101C4C007DFF002038BD616801EB0011FFF7C0FE7D
:101C5C000130F0E74FF0FF30F4E700BFB472010041
:101C6C0090ED00E0AAFF4400BECC0020014B1860B0
:101C7C00704700BF04C500200E4A70B5841A054693
:101C8C000C200E464021A3100B4C5C43E4B200FB2D
:101C9C000420084404F092FC011E05DB074B03EB07
:101CAC00C40463689847002128463346BDE8704059
:101CBC00184700BFE4C80020B76DDBB6F472010012
:101CCC002DE9F0410C25104E8046841BA3100F4CBF
:101CDC000F465C43E4B2654305F1400040213044BB
:101CEC0004F085FC011E09DB094A7319C3E90E27B0
:101CFC00084B53F83430BDE8F041184740463B469A
:101D0C00BDE8F041184700BFE4C80020B76DDBB652
:101D1C005D660100F472010070B5002201210446D9
:101D2C000520FFF7FFFB0520FFF7DEFB0F4801F056
:101D3C00F7F80F4B984215D104F0E2FD26690D49D6
:101D4C00304604F0F6F800280BDB012535642469D5
:101D5C00084904F11C0004F0ECF8002801DB002019
:101D6C00E56470BD6FF00400FBE700BFB91D010016
:101D7C000000AD0B0473010001460C2300224B4301
:101D8C00084870B5C4184033D4E90E561844A26301
:101D9C0004F04BFC2DB132462B46BDE87040024896
:101DAC00184770BDE4C80020E86F010010B101288D
:101DBC0004D07047034B1B6C5B0701D1FFF7DCBFF2
:101DCC00704700BFE4C8002008B54FF02003EFF3C4
:101DDC00118183F31288BFF36F8F114A136843F09C
:101DEC00020013F0010310600BD00E4AD2F80C3431
:101DFC00D2F80C2413F0010303D00B4804F015FCAB
:101E0C00012381F31188BFF36F8F23B1BDE8084024
:101E1C000020FFF7B1BF0120BDE8084001F090B8E9
:101E2C0034C900200050004024C90020074BD3E8DF
:101E3C00EF2F22F00201C3E8E01F0028F7D1D307EF
:101E4C0002D4012001F0AEB8704700BF34C90020A5
:101E5C001FB500220123CDE902236B46084ACDF8B9
:101E6C0000D0CDF804D004F019FC002805DB4FF4A9
:101E7C0080420023684603F0F9F905B05DF804FBD5
:101E8C007B6601002DE9F843012207463649D1E86B
:101E9C00EF3FC1E8E02F0028F9D133B9334934487A
:101EAC004B60CB608A6004F057F87B1E012B2ED858
:101EBC00012F06D12F4BD3F81C3403F00303022B54
:101ECC0025D004F0AEFE044618B92B4B1B78002B22
:101EDC0044D14FF02003EFF3118683F31288BFF344
:101EEC006F8F0124234DDFF89C80A946D5F8183458
:101EFC00D5F81824D2030CD503F00303022B01D020
:101F0C00012F06D134B386F31188BFF36F8FBDE870
:101F1C00F883D4B13046FFF7DDFAD5F81835DBB2CB
:101F2C00012BE3D1D8F80020002ADFD00022C8F81A
:101F3C000020D8F8002002222021C5F818250F4ACD
:101F4C00C2F880110E4A1360D0E70021212003F063
:101F5C00A1FCE2E70223C9F80433D8E70222054BBF
:101F6C000646C3F80823BDE738C90020D4C80020B2
:101F7C0000C9002000500040F0CD002000E100E03E
:101F8C00085000400451004008B50848084B186040
:101F9C0004F0ACFD38B10748FFF768FE0548FEF7C2
:101FAC0097FC002008BD6FF01200FBE730700100B9
:101FBC003CC90020C51F01000A2838B50446074D4E
:101FCC0004D1286883680D215B689847286883686A
:101FDC00E1B25B689847204638BD00BF3CC9002081
:101FEC0030B5406801F01F05047BB2F5005F45EA8F
:101FFC00441585B04FF0000404D1284601F090FA46
:10200C0000202CE0B2F5804FCDE9024429D1B3F584
:10201C00003F0CBF042305238DF80830836823FA96
:10202C0001F1C90729D4B2F5A03F26D11B4A05F00E
:10203C001F03803352F82330DB071ED40DF1070445
:10204C002146284601F0DCF9154B984214D1204664
:10205C0001F020FA134B98420ED06FF00B0005B034
:10206C0030BDB3F5C02F05D0B3F5003F0CBF022334
:10207C000123D1E70323CFE7039400232846194615
:10208C0002AA01F07DF8074B984204D101212846A1
:10209C0001F006FAB4E76FF00400E0E70025844095
:1020AC000400AD0B0000AD0B10B501F0E3F90446D4
:1020BC0068B901F0B7F9084B98420AD12146074894
:1020CC0001F098F9224605213120FFF72BFA002068
:1020DC0010BD6FF00400FBE70000AD0BED2001001C
:1020EC00430970B517D10C4B5968A1B10C68012587
:1020FC00002C38BF0024094E85408A682A4002D043
:10210C0030464B68984734B123682146002B38BFC2
:10211C0000231C46F1E770BD40C90020007001008F
:10212C002DE9F043476801F01F053B7B0E46144632
:10213C0085B045EA4315CAB902A9284601F060F9F1
:10214C000446284601F00EFA474B984204D06FF033
:10215C00040005B0BDE8F083844205D19DF8080069
:10216C0001F092F9A042F2D10020F2E74FF0000901
:10217C000DF103013046CDE9029901F041F94B46CE
:10218C0080464946284602AA00F0FAFF364B984290
:10219C0002D06FF01500DCE7804503D19DF80300F9
:1021AC0001F072F9A3054CD5304B314A23409342D0
:1021BC0039D00CD8062B14D004D893B1022BE8D10B
:1021CC0004230EE0B3F5801FE3D1012309E0294A73
:1021DC0093422AD0B3F5A00F29D0B3F5800FD8D1F4
:1021EC0002238DF8043084F48073C3F30023E006DB
:1021FC008DF805304CBF0323C4F3401321058DF833
:10220C00063016D501217B6801FA06F69E60002285
:10221C00284601A901F05AF8134B984214BF6FF0ED
:10222C001500002095E70723DBE70523D9E70323F7
:10223C00D7E7620541BF01217B6801FA06F6DE6033
:10224C00E5E7E3064FF000034CBF0324C4F340144E
:10225C001A46284601A98DF8044000F091FF024B64
:10226C00984281D095E700BF0000AD0B0600F0004E
:10227C000600100002004000F0B54B79012B26D06F
:10228C00032B21D110268B79032B1DD1CC790CB1CA
:10229C00012C19D10A7912B1022A15D10E220B6820
:1022AC004568B3F5164F2D6865D02DD8B3F5165F7C
:1022BC0064D016D8B3F5966F62D00AD8B3F5967F72
:1022CC0061D0B3F5167F61D06FF0850052E0002627
:1022DC00D9E7B3F5166F5CD0B3F5965FF4D1374BF5
:1022EC003CE0B3F5E14F57D007D8B3F5615F55D05B
:1022FC00B3F5964FE8D1324B30E047F61227BB428C
:10230C00E2D14FF4000329E0B3F5613F48D013D874
:10231C00B3F5963F47D009D84DF6C027BB4244D001
:10232C00B3F5614FD0D14FF46B0317E0B3F5E13F38
:10233C00CAD14FF0EB7311E0B3F5612F38D008D848
:10234C00204FBB4237D0B3F5E12FBDD14FF0E8633E
:10235C0004E01D4FBB42B7D14FF08053C5F8243574
:10236C00036934432243043303C9C5F86C2583E85D
:10237C0003000020F0BD4FF41D03EFE7134BEDE716
:10238C004FF49E23EAE74FF4A033E7E74FF41C33F6
:10239C00E4E74FF41D23E1E70D4BDFE70D4BDDE7E1
:1023AC004FF06C73DAE70C4BD8E74FF46503D5E7C5
:1023BC004FF07063D2E74FF08063CFE700B01300AB
:1023CC0000A04E0090D0030040420F0000502700A8
:1023DC0000C0750000F03A0000903A01F8B50546CF
:1023EC000F46066904F01DFC10B92C4B1B7883B901
:1023FC004FF02003EFF3118483F31288BFF36F8F38
:10240C00284604F0FAF928BB84F31188BFF36F8FC8
:10241C00EEE76424284604F0F0F970B9012004F0CA
:10242C006DFA013CF6D10021212003F033FAF0E7DC
:10243C0084F31188BFF36F8FF5E74FF02003EFF3B0
:10244C00118483F31288BFF36F8F284604F0D5F9FB
:10245C000028EDD0012206F8107F69680B68C3F8DC
:10246C004465C3F848250022C3F82021D3F8200185
:10247C00C3F85821D3F858214A68D20641BF082224
:10248C00C3F800254FF48002C3F8042301229A609C
:10249C0084F31188BFF36F8FF8BD00BFF0CD00201F
:1024AC002DE9F8430646012100220820FFF73AF8EF
:1024BC000820FFF719F80023776835693C68C4F8E1
:1024CC0000352E607368D868411C0BD00121DFF8F1
:1024DC0038C100F01F029140CCF808100321803263
:1024EC004CF8221019694A1C0DD01A7FDFF818C15C
:1024FC00002A14BF4FF00C0E4FF0000E01F01F021B
:10250C0080324CF822E0D3F814C0BCF1FF3F0ED05F
:10251C004FF0010EDFF8F0800CF01F020EFA02FEF5
:10252C00C8F808E04FF0030E803248F822E0D3F8E8
:10253C0018E0BEF1FF3F0DD05A7FDFF8CC80002AA7
:10254C0014BF4FF00C094FF000090EF01F0280323F
:10255C0048F822901B68C3F80C05C3F814153169B0
:10256C003046C3F808C50431C3F810E5FFF784FE04
:10257C00064600283DD17B68990713D505F112005A
:10258C0000F084FD1E4B984236D1AB7C43F00043E7
:10259C00C4F8A031C4F88C300123AA7C9340194AAA
:1025AC00C2F804350823C4F800353B7A5BB9C4F88B
:1025BC001031D4F8103105F11103C4F8343501236E
:1025CC00C4F8383523607B6810359A075CBF4FF42C
:1025DC008072C4F80423DB0644BF4FF48003C4F8B4
:1025EC0004330023C4F84455C4F848350123A360D0
:1025FC00E3603046BDE8F8836FF00406F9E700BFEE
:10260C000000AD0B0070014000258440194970B5E5
:10261C00044622F07F460868C1E90023A6F50013A2
:10262C00101AB3F5400F4FF000050AD20125124BDA
:10263C0019680A060B0A9219104943F10003C1E903
:10264C00002303F08BFAA30003F1804303F5A833B6
:10265C00D3F84025B2420BD11DB94FF40002C3F898
:10266C0040254FF48030064B00FA04F4C3F8444381
:10267C0070BD00BFE0C6002054C90020C8C60020B1
:10268C00005001400123834010B5DC430C4AD2E8D2
:10269C00EF1F01EA040CC2E8EECFBEF1000FF6D139
:1026AC004FF4803202FA00F0064AC2F80803BFF376
:1026BC005F8FBFF36F8F0B4214BF0120002010BD42
:1026CC0050C900200050014001230E4A8340D2E83B
:1026DC00EF1F1943C2E8EC1FBCF1000FF7D14FF408
:1026EC008033094A8340C2F80433084BD3E8AF3F28
:1026FC0023FA00F0C30742BF4FF40012044BC3F897
:10270C000021704750C90020005001404CC90020E6
:10271C0000E100E00D4B1B68190A1806BFF35F8F30
:10272C000B4BD3F80435C01841F10001B3F5801FF1
:10273C000AD2084BD3E90023994208BF904203D236
:10274C0010F1807041F10001704700BF54C90020A6
:10275C0000500140C8C600202DE9F74F16461F4611
:10276C000546FFF78FFF0090FFF7D4FFB94208BF73
:10277C00B0427BD200234FF08072B6EB000867EBBF
:10278C0001094B4508BF42457DD3404B03EB051374
:10279C00D3E902239F4208BF964251D04FF4803BAD
:1027AC0026F07F4214464FEA850905F1500809F1DD
:1027BC0080494FEA880809F5A8391FFA88F808F10A
:1027CC008048D9F84005324B08F5A8380BFA05FBC0
:1027DC00D3F804A5A0EB0A0020F07F402AF07F413B
:1027EC000128C9F8401505D10192132004F071FBA2
:1027FC00274B019A0AF1020CA4EB0C0020F07F404D
:10280C000021B0F5000F88BF6446C8F80010D8F856
:10281C00000024F07F40C3F844B3C9F84005D3F856
:10282C000405824506D0201A023820F07F40B0F50E
:10283C00000F19D8A41A24F07F44321947F1000371
:10284C00124C290104EB0510C0E902230C9A0D9BD4
:10285C00625000244360009B13B12846FFF734FFFD
:10286C00204603B0BDE8F08F2046B1E70123094AAA
:10287C00AB40D2E8EF1F1943C2E8E01F0028F8D1A3
:10288C0032463B46DCE76FF01504E4E7D0C6002087
:10289C00005001404CC9002073B500244FF0FF30AC
:1028AC004FF0FF31164D174BC5F80845C3E902012F
:1028BC004FF4803302264FF40012C5F80433124B48
:1028CC000121C5F804631520C3F880212246FEF7C8
:1028DC0029FE1520FEF708FE01230C4A2046136042
:1028EC000B4A2B6013600B4B0B4A00930194002393
:1028FC00FFF732FF3046FFF7C5FA204602B070BD35
:10290C0000500140D0C6002000E100E0085001401A
:10291C0050C9002019260100FFFF7F00334B2DE921
:10292C007343D3F804339A0709D5314B1A6832B183
:10293C0000221A602F4A1B681368013313604FF092
:10294C002003EFF3118283F31288BFF36F8F274BB1
:10295C00D3F80433DB030ED5274BD3E8EF1F21F05C
:10296C000100C3E8E40F002CF7D1244B002936D129
:10297C001968002933D1002382F31188BFF36F8FBC
:10298C0053B3FFF7C7FE04464FF02003EFF311805B
:10299C0083F31288BFF36F8F194B0022D3E902899E
:1029AC00494508BF44451FD3D3E900164FF0FF3407
:1029BC004FF0FF351A604FF48032C3E902450B4BE0
:1029CC00C3F8482380F31188BFF36F8F21B14246BF
:1029DC004B4600200096884702B0BDE8708300216A
:1029EC0019601B680123C7E71146EBE70050014053
:1029FC000451014054C900204CC9002040510140F1
:102A0C00D0C60020144B13B5B0F1FF3F08BF1846D9
:102A1C00441E002C1DDD9C42A8BF1C46FFF77AFE0D
:102A2C000E4B0F49D3E90023801AB0F5000F28BFD5
:102A3C0000240130044408480091844228BF044615
:102A4C0000201219019043F10003FFF785FE02B03C
:102A5C0010BD0024E2E700BFFFFF7F00E0C60020AE
:102A6C001926010008B5FFF755FE024B1B68C01A6A
:102A7C0008BD00BFE0C6002038B5194D194C2B78A5
:102A8C0033B9C4E90033184804F0D8F801232B708B
:102A9C0000222A201146FEF745FD0021134802F0C2
:102AAC000DF9134B18604FF0FF324FF0FF330E4807
:102ABC0002F0F8FA206870B10468002C38BF0024CA
:102ACC00043002F0B3FB34B123682046002B38BF2E
:102ADC0000231C46F4E7044802F062FB002038BDDA
:102AEC00BFCC00205CC9002064C9002080730100A9
:102AFC0058C9002070B50D4C02460A250026204608
:102B0C000B4B1B68016891420ED051B14168591AA8
:102B1C00B142C4BF04460E46013D00F10800F1D19C
:102B2C002046013B0260436070BD00BFD0C900204D
:102B3C00ACC90020684620F007018D4619B50F4B33
:102B4C00D3E8EF2F0132C3E8E12F0029F8D101F0CF
:102B5C00F9F80B4B1C68002C38BF00242CB1201D3D
:102B6C0002F064FB2468002CF8D1FEF7F1FCFEF7B0
:102B7C00CBFDBDE819408546704700BFACC90020AD
:102B8C00C8C900202DE9F04F0C4687B004F09FF91E
:102B9C0023688046002B8A4603D102F0EDFD742099
:102BAC0091E0BCBF4FF0FF3323600122002102A84B
:102BBC0004F04BF801AD4FF02003EFF3118B83F3CE
:102BCC001288BFF36F8F02F07FFEFFF793FF474928
:102BDC0043680A68894693424FF0000308D1019379
:102BEC00434B5A68002A71D1C3E90055012300E018
:102BFC0042608BF31188BFF36F8F002B62D0236878
:102C0C005A1C66D04FF4004E40F2E730002123EA04
:102C1C00E37C4FF47A720023CEFB0C01FDF708FB2A
:102C2C0002460B4602A802F021FB4FF02003EFF303
:102C3C00118B83F31288BFF36F8F00202C4B1A6813
:102C4C005AB1AA424FD1019D002846D159681D6046
:102C5C00914200D15D600023019302F035FEFFF735
:102C6C0049FFD9F8003043608BF31188BFF36F8FA5
:102C7C0025686B1C26D004F02AF94FF47A7C8E461A
:102C8C00A8FB0C89A0FB0C010CFB0A990CFB0E1188
:102C9C004FEAD83242EA494252194FEAD93343EB50
:102CAC00E573C50B45EA4145561B4FEAD13C63EB36
:102CBC000C07002E77F10003B8BF00262660002E0B
:102CCC003FF46DAF002007B0BDE8F08F15605D607C
:102CDC008CE74FF0FF321346A4E705605968914228
:102CEC0008BF5860B7E710461268A9E7ACC90020C6
:102CFC00C8C9002070B40468094B2CB19C4203D3A2
:102D0C0003F13005AC4206D3064D2C78661C03EB60
:102D1C0004132E700360006870BC03F096BF00BFF4
:102D2C007CC90020C0CC00204FF08052014BC3F86E
:102D3C000021704700E100E04FF08052014BC3F8D6
:102D4C008021704700E100E04FF00052014BC3F8C6
:102D5C000021704700E100E04FF00052014BC3F836
:102D6C008021704700E100E0014600220023014869
:102D7C0003F030BF98C500200146014803F034BF72
:102D8C0098C50020014600220023014803F022BF11
:102D9C00B4C900200146014803F026BFB4C9002085
:102DAC0010B500240E4BC3E900440E4BD3E8EF2FB3
:102DBC00C3E8E14F0029F9D103F08EFD214604222E
:102DCC00094803F0E6FB21460422084803F0E1FB26
:102DDC00BDE810404FF400520549064803F0ABBE65
:102DEC00C8C90020ACC9002078C90020B0C9002097
:102DFC00E8840020B4C900202DE9F0430025214CC3
:102E0C00214E54F8048CDFF8889085B0A84503D87F
:102E1C00002005B0BDE8F083636A96E807001F68E0
:102E2C0001AB83E807000C221946384603F096FBE9
:102E3C0090B98FB1636A21691B681A6991420BD1F1
:102E4C009A69A169914207D8E169914204D96269F2
:102E5C005B6932EA03030AD0276A67B10B4803F0B7
:102E6C000CF8404080F311884FF0040002DFE36857
:102E7C0001351C44CAE7484602F0FFFF636A1F6035
:102E8C00F5E700BF3C0201007072010022750100E1
:102E9C004B750100014B024A1A6070471CC500209B
:102EAC000090D00370B501250368B3FA83F2202A91
:102EBC00C2F11F0410D005FA04F223EA0202D0E892
:102ECC00EF6F9E4204D1C0E8EC2FBCF1000FF6D19D
:102EDC00EAD102480C7070BD0148FCE70000AD0B54
:102EEC000200AD0B036810B5CB40DB0711D40123F6
:102EFC0003FA01F1036841EA0302D0E8EF4F9C4268
:102F0C0004D1C0E8EC2FBCF1000FF6D1F2D102488D
:102F1C0010BD0248FCE700BF0000AD0B0400AD0B78
:102F2C00044B1A7922B9012218601A7102487047B1
:102F3C000248704720CA00200000AD0B0C00AD0BFE
:102F4C0010B101281ED07047134BD3F81824D3F8B6
:102F5C00181411F4803F194610D002F00302022A13
:102F6C000CD1C3F8182500220C4B1A6002221B68E6
:102F7C00094BC3F8042301229A6070470123C1F85E
:102F8C001835F0E70022064B1A601B68024BC3F899
:102F9C0004031860704700BF00500040045100400B
:102FAC000051004038B510B1012816D038BD0222AE
:102FBC00012142F21075164CC4F80823154A106012
:102FCC001268154A1160D4F81834DB03EED50120D1
:102FDC0003F094FC013DF6D1E8E7002242F21075B3
:102FEC000E4B0B4CC4F808031A601B680C4B186092
:102FFC00D4F80C34D4F80C2403F00103D203D5D547
:10300C00002BD3D0012003F079FC013DF0D1CDE7AA
:10301C0000500040045100400C5000400051004052
:10302C0004500040154B10B51A684AB1002001221B
:10303C0018601B68124BC3F80823124B1B68984787
:10304C00114B1A6882B100221A601B680C4BD3F822
:10305C001824D3F8181402F00302012A4FF00201CD
:10306C0003D1C3F818159A6010BDC3F80813054BAB
:10307C000120BDE810401B68184700BF00510040FC
:10308C000050004020CA0020045100400146014875
:10309C00FFF708BF20C5002070B50D4C00F10803E8
:1030AC0034F813300546DA050E4607D5C3F343232F
:1030BC0004EBC302526854F833309847A3682BB121
:1030CC0031462846E268BDE87040184770BD00BF25
:1030DC0024C50020124B083033F8102010B4D10551
:1030EC001BD5C2F3432122F4F85223F81020002000
:1030FC0003F1100434F8022B12F4807F03D0C2F3D6
:10310C004322914209D001302028F3D100220548F6
:10311C0010BC43F83120FFF7E5BE10BC704700BF70
:10312C0024C5002078C5002038B50C4C00F10805EA
:10313C0034F815309A060AD500225B0B9B0003F17C
:10314C00804303F54433C3F81025C3F81025FFF76B
:10315C00C1FF002324F8153038BD00BF24C5002062
:10316C0000F01F02054800EB8200D0F8003223F477
:10317C00403343EA0143C0F80032704700258440D5
:10318C00F7B50446F9B14C4F00F1080C37F81C00A8
:10319C0000F02205222D02D1484803B0F0BD484D65
:1031AC0004F01F0605EB8606D6F80052097825F0C8
:1031BC000F0520F0020045EA810140F00100C6F83D
:1031CC00001227F81C0092B13B4804F1080630F8B5
:1031DC00161015788F0752680CD5002ADCD130F800
:1031EC00162022F01C0242EA850520F81650D3BBAB
:1031FC003448D2E721F02001C904C90C20F816107C
:10320C00002AECD0032DC7D892F800C06246920079
:10321C0002F1804202F5443225B9C2F81055C2F8C9
:10322C001055DCE7D2F810754FEA042E27F003078F
:10323C00C2F81075D2F810750EF4F85E27F4473703
:10324C0027F44077C2F81075D2F8107541EA4C316A
:10325C0047EA054747EA0E0741F02001C2F810750E
:10326C0020F81610BBE72046D3E90067FFF732FFC2
:10327C00002EBDD0104D2B689E4204D16B689F422E
:10328C0001D1002209E010480DF10701FFF70AFEF9
:10329C000C4B984281D19DF8072005EBC2030834F2
:1032AC005F6035F8143045F8326043EA422343F44A
:1032BC00807325F814309BE724C500200400AD0B67
:1032CC00002584400000AD0B78C500202DE9F043AB
:1032DC00002944D0434E00F1080C36F81C50AB07C3
:1032EC0004D4AF0602D54048BDE8F08315F01C0F9E
:1032FC0002D04B78012BF6D03C4B11F1010E00F0B3
:10330C001F0714BF0224002403EB87078B1C14BF78
:10331C004FF00C094FF0000944EA0904D7F8008279
:10332C0044F4E06444F0010428EA0408BEF1000F00
:10333C0003D091F801E04FEA4E0E0BB18C78A3004C
:10334C00097845F0030543EA012343EA080343EAFD
:10335C000E0343F00103C7F8003226F81C500AB9DB
:10336C002348C1E71F4D00F1080635F81640A307A6
:10337C00B9D50023177824F02004B90001F180415D
:10338C00E40401F54431E40CC1F8103525F816407D
:10339C00C1F8103592F801C0BCF1000FE0D0D1F8A3
:1033AC001035927823F4981323F4F853C1F81035A0
:1033BC00D1F810E5030203F4F8534FEA0C4043EA4A
:1033CC000E0300F440301205034302F4801244EA69
:1033DC004734134344F02004C1F8103525F8164047
:1033EC00BEE700BF24C500200400AD0B00258440BF
:1033FC000000AD0B014BC3E90201704724C500204E
:10340C00054B083033F810309A0643BF5B0B03486A
:10341C000B700348704700BF24C500200000AD0BA3
:10342C000400AD0B38B50E4C94F85850B5B9402289
:10343C00294604F1100003F0ACF83120FEF754F8E3
:10344C004FF00042074B08481D601B68074BC3F840
:10345C000423012384F85830636538BD0448FCE725
:10346C0024C500207C1103400000AD0B001003406C
:10347C000500AD0B034B93F85800003818BF012022
:10348C00704700BF24C5002001460148FFF72ABD44
:10349C0074C5002001460148FFF704BD74C5002027
:1034AC001B4B00F1080233F8123010B49A061AD5EF
:1034BC0013F0020417D117485B0B9A008450805804
:1034CC0002F1804202F54432D2F8100540F00100BE
:1034DC00C2F8100529B1012202FA03F30E4AC2F810
:1034EC00043310BC7047C3F38203042B0CD0052BA0
:1034FC000CD00A4B196900F01F03D94001F00101EF
:10350C00023110BCFFF72CBE0321FAE70221F8E7C9
:10351C0024C5002000110340001003400025844006
:10352C000E4B00F1080233F81230990613D59A07A6
:10353C0011D401225B0B9A4009499B0003F1804393
:10354C00C1F8082303F54433D3F8102522F0030205
:10355C00C3F8102570470021FFF702BE24C50020D8
:10356C00001003400C4B00F1080213F8123010B598
:10357C00DB0704460DD5FFF7D3FF2046FFF7D4FD3C
:10358C000222064B04F01F048034054843F8242023
:10359C0010BD0448FCE700BF24C500200025844072
:1035AC000000AD0B0400AD0B2DE9F04F00260122FD
:1035BC0034464B4B4B484C4985B01D6835B1D0F85F
:1035CC00045315421EBF1C601D68164304338B4206
:1035DC004FEA4202F1D1454F3B6883B1444D0DF1A6
:1035EC000C082B6A03932B624FF00109039840B926
:1035FC0038603B682B6A03932B62002BF4D10124B7
:10360C0069E090FAA0FABAFA8AFA3A4A0AF108037F
:10361C0032F813104FEADA0C0AF0070309FA03F434
:10362C0018F80C30C1F3820223EA040308F80C30BA
:10363C0005EB8A03D3F80042C8069346C4F3014451
:10364C0018D5114650460193FFF726FD019BE4B2B5
:10365C00D3F80032C3F301439C4207D100215046FA
:10366C00FFF77EFD21465046FFF77AFD09FA0AF076
:10367C002862BBE7022C0CBF0321022150460192A9
:10368C00FFF76EFD019A032A04D0022C07D1BBF17F
:10369C00010FEBD159465046FFF7FEFCE6E7032C31
:1036AC00E4D1BBF1020FF4E796FAA6F3B3FA83F375
:1036BC0004FA03F29B0003F1804303F54433D3F87F
:1036CC001005D3F81015C0F30420C1F3014126EA0C
:1036DC000206FFF7E1FC002EE6D105B0BDE8F08F45
:1036EC000011034000100340201103407C110340E3
:1036FC000025844024C5002070B5084C0E46237963
:10370C00154643B92A20FDF7EFFE01230448237127
:10371C002660A56070BD0348FCE700BF28CA0020E6
:10372C000000AD0B0C00AD0B002330B50D4A50F86A
:10373C00234003F5A2710133082B42F82140F6D146
:10374C000023084A00F1200103F5B27451F8045B20
:10375C000133082B42F82450F6D1036CC2F8043321
:10376C0030BD00BF00A002400023144A1449C1F828
:10377C001035C2F81035C2F81435C2F81835C2F835
:10378C001C35C2F82035C2F82435C2F82835C1F8EA
:10379C009035C2F89035C2F89435C2F89835C2F815
:1037AC009C35C2F8A035C2F8A435C2F8A8354FF044
:1037BC00FF32C1F80823034A1371704704A002407A
:1037CC0000A0024028CA00200C4B30B4D3F80C03E4
:1037DC0001240346002523B930BC094B1A689968AB
:1037EC00104793FAA3F2B2FA82F204FA02F123EA36
:1037FC000103044992008D50EDE700BF00A0024088
:10380C0028CA002000A102402DE9F0418046044660
:10381C00002758F8086B0C4DF6B22B78B3420AD03F
:10382C000137042F05F10C05F7D1A06850B103F056
:10383C00B4F8002006E0216840466B68090C9847F4
:10384C000228EDD0BDE8F081A47301002DE9F84FFA
:10385C00534F05460021386803F01BF80446002836
:10386C004CD12B78D5F80880622B43D0632B43D0F6
:10387C00612B02D14B4B1C88A4B2386803F007F8BB
:10388C00D5F80CA02969A8EB0A08A1EB0A039BB296
:10389C0014FA88F4B4FBF3F203FB12446A68A2EB4B
:1038AC000A0213FA82F2121B92FBF3F003FB1022B2
:1038BC001FFA82F914FA82F29342A24422DAA1EBA3
:1038CC000A039BB2A9EB03049946A4B2B9F1000F09
:1038DC0064D00520FFF748FA804600285ED09CB1E2
:1038EC000520FFF741FA064670B94046BDE8F84F8F
:1038FC00FFF742BA2C4BBEE72C4BBCE7BDE8F84FA8
:10390C00FFF722BA0024E1E70021386802F0C1FF7A
:10391C0040B1FFF719FA4046FFF72EFA002C3DD0C4
:10392C003046E3E72B78622B34D0632B34D0612BF9
:10393C0007D11C4A138804EB090111FA83F39BB2DB
:10394C00138038686FF0100B6FF0410702F09FFF87
:10395C0088F800B088F801702B780521404688F86B
:10396C000430A8F8029002F0C2FF4946504602F01B
:10397C00BEFF9CB186F800B077702B7805213046DD
:10398C003371748002F0B3FF2146E868BDE8F84F4C
:10399C0002F0ADBF044ACDE7044ACBE7BDE8F88F8F
:1039AC0044CA0020B4CC0020B0CC0020B2CC002003
:1039BC000023084A10B51380074A04461380074AAF
:1039CC000748138001221146FFF794F9054B1C6040
:1039DC0010BD00BFB4CC0020B0CC0020B2CC002075
:1039EC0044CA002040CA002008B5104B1B780BB904
:1039FC00FFF7B2F90E4B1868426883689A4201D0FF
:103A0C00FFF724FF0B4B1868826843689A4201D079
:103A1C00FFF71CFF084B1868826843689A4203D072
:103A2C00BDE80840FFF712BF08BD00BFC1CC0020A5
:103A3C003CCA002034CA002038CA00202DE9F74FB8
:103A4C00434B1B681969D3F814A01A7C00221A7412
:103A5C00587C5A74987C9A74D87CDA74187D1A75D0
:103A6C00587D5A75987D9A75D87DDA75002933D0B2
:103A7C000139032930D8DFE801F002654C53354A8F
:103A8C00117809B100211170002291461746144695
:103A9C00314D32493248D5F800E0D1F80080066843
:103AAC00DAF808B00195A34519D107B10660B9F150
:103ABC00000F01D0C1F8008012B1019AC2F800E0E9
:103ACC001A7A012100221972597A5A72997A9A72C9
:103ADC00DA7A6FF05F02DA7203B0BDE8F08FA51CE2
:103AEC000AEB85056D6895F800C0BCF1620F09D032
:103AFC00BCF1630F0AD0BCF1610F04BF2E46012745
:103B0C000134D0E7A8464FF00109F9E7AE4601228F
:103B1C00F6E701210F4A11701A7A03210022D2E72D
:103B2C00197A04211972597A5A72997A9A72D97A35
:103B3C006FF05F01D972074B1A7003B0BDE8F04FFC
:103B4C00FFF752BF03B0BDE8F04FFFF7FDB800BF61
:103B5C0040CA0020C1CC002038CA002034CA002042
:103B6C003CCA0020014B1878704700BFC1CC002024
:103B7C002DE9F04106460F460025DFF874803368C6
:103B8C00AB4201D8BDE8F08106EBC504A368FBB1DC
:103B9C006368DBB2012B1BD16268B8F80030B3EB61
:103BAC00124F15D1022FA06814D1FFF72DFE022859
:103BBC000ED0012813D1636823F0FF0343F00203F6
:103BCC006360B8F800300133A8F80030FFF7ACF8A8
:103BDC000135D4E70168090C02F09DFEE7E70028E7
:103BEC00EFD1636823F0FF0343F00303E8E700BF62
:103BFC00B6CC002070B5164600240368A34201D150
:103C0C0000231CE000EBC4025568EDB2032D18D163
:103C1C0001EB84139360516821F0FF0151600C4952
:103C2C000888441C0C80516889B241EA00415160FB
:103C3C0018464022002102F0ACFC034646601846B0
:103C4C0070BD15B99568002DE2D00134D6E700BFE0
:103C5C00B8CC002008B50B4B1B68C01A0A4BC0F33C
:103C6C0089101B6803EBC000436823F0FF0343F08B
:103C7C0001034360032002F006FE0122034B1A608D
:103C8C0008BD00BF60CA002064CA00200CA002401E
:103C9C0008B50B4B1B68C01A0A4BC0F389101B6884
:103CAC0003EBC000436823F0FF0343F001034360C0
:103CBC00032002F0E8FD0122034B1A6008BD00BF8F
:103CCC0058CA00205CCA002004A00240054B1B7897
:103CDC0033B9054B02221968044B1868FFF78ABFE9
:103CEC0000207047C3CC002060CA002064CA0020AA
:103CFC000A2337B50C4C0D4D01930122216828681D
:103D0C00FFF778FF68B902F0C0FD18B901A9FEF7FA
:103D1C0039FFF2E74FF47A70019B584302F0B3FD80
:103D2C00EBE703B030BD00BF58CA00205CCA0020CE
:103D3C00034B1B780BB9FFF725B80020704700BF69
:103D4C00C3CC002010B5064CFEF7F6FF206801210D
:103D5C00FFF70EFF60680221BDE81040FFF708BFB7
:103D6C004CCA00200023114930B50A681468A342DC
:103D7C000BD100234A6811688B4215D002EBC304A7
:103D8C00A468A04208D00133F6E702EBC305AD6886
:103D9C00A84201D00133EAE702EBC3035A6822F0D0
:103DAC00FF0242F003025A6030BD00BF4CCA002033
:103DBC002DE9F04F002295B005464D490079FFF7EB
:103DCC009BFC3822002103A802F0E3FB022304939E
:103DDC00082306932023089301230B9304230D93AC
:103DEC0010234FF0400C0F938023CDE911C3D52342
:103DFC0003A81393FFF798FC2B6800215A681868E6
:103E0C0002F0C7FB2A681468D36904F1600604F158
:103E1C00A40704F1E80A04F53A7B04F12009002B0D
:103E2C0060D004F140083349C1F800903BB192696D
:103E3C004046C8F80420C8F80030FFF7B9FD2868E0
:103E4C0000230269012162604269A170A2602A4AC2
:103E5C0023701760294A637016600822E370E660CD
:103E6C00276184F8A420C4F81490C4F818807B70DF
:103E7C00BB70FB70142784F86020214A214DC2F8D6
:103E8C0000B0214A7370C2F800A0204AB370F370DE
:103E9C00C2F81046C2F814361D4C29701D49236017
:103EAC0002930B600B681C4E0293029B002001A92D
:103EBC000197FEF767FE019B143B1E442B78012BE8
:103ECC0004D1002EF2D16FF07303236024685CB927
:103EDC00124B1C70124B1C80124B1C80204615B0D0
:103EEC00BDE8F08F98469EE7FFF73EFCF6E700BF73
:103EFC00353F010054CA002064CA00205CCA00206F
:103F0C0060CA0020C2CC002058CA002000A0024089
:103F1C0048CA002010560040F0490200C3CC0020D3
:103F2C00B8CC0020B6CC002070B5044620060CD5C9
:103F3C00FFF784FDFFF716FE38B1E0223E4B83F805
:103F4C002A234FF480625A6070BDE10748D548F2CD
:103F5C0002023A4BD3F81436934235D01BD843F2B5
:103F6C003202934236D00BD8013B012BECD8032202
:103F7C000E20334B1A70334B186002F09AFDE3E7B6
:103F8C0048F201029342DFD103222D4B1A70162204
:103F9C002C4B1A60D8E72C4A93420CD8B3F1886F9B
:103FAC000CD848F203029342CED10322244B1A7050
:103FBC000C22244BEDE7254A9342C5D10321204A1C
:103FCC001170204A1360BFE703221D4B1A705F2249
:103FDC001C4BDEE703221A4B1A700522194BD8E74B
:103FEC0014F0400503D00222154B1A70ACE762079F
:103FFC0005D5134B1A781E463AB9FEF795FEE30623
:10400C00A2D5BDE87040FEF78FBE012AF7D1104A49
:10401C0010481268916841605268026021B11AB16F
:10402C00096809B112682AB9032305223370054BBC
:10403C001A60E4E71D70E2E700E100E000A0024036
:10404C00C2CC002048CA00200400400401005005E6
:10405C0054CA00204CCA002008B54FF4B07200219D
:10406C00024802F096FA002008BD00BF68CA002082
:10407C002DE9F04115462C2250431E460E4B0C46A2
:10408C001F181B582B408B4202D10020BDE8F08139
:10409C007B68002BF9D1B846D8F800302B40A342EE
:1040AC00F3D0D8F80430002BEFD131463846FEF768
:1040BC0069FD0028F0D0E9E768CA00200D4A70B508
:1040CC00002311462C2505FB03F40C595CB1D46874
:1040DC0024F00806022E01D0052C04D105FB03F6B2
:1040EC008C5904438C510133082B02F12C02EAD178
:1040FC0070BD00BF68CA00200D4A70B50023114680
:10410C002C25C04305FB03F40C595CB1D46824F096
:10411C000806022E01D0052C04D105FB03F68C59A0
:10412C0004408C510133082B02F12C02EAD170BDF2
:10413C0068CA00200A4B024630B500201C462C21D0
:10414C0001FB00F5655915B19D69954206D001300A
:10415C00082803F12C03F3D14FF0FF3030BD00BF22
:10416C0068CA0020072808D82C234343044AD018D7
:10417C00D358002B08BF002070470020704700BFA9
:10418C0068CA00206A289ABF014B185C5F207047F0
:10419C0083750100052813D007D870B10B4B1B5C3D
:1041AC000B4A40F215101360704706280BD00D28EF
:1041BC0009D06A28F2D95F23F2E7054B18607047E3
:1041CC004FF48A70704740F21110704783750100EC
:1041DC00D0CB002010B50024064B20221C60064BCF
:1041EC00214606481C6002F0D4F90122044B2046FB
:1041FC001A7010BDDCCB0020D8CB0020E0CB002007
:10420C00C5CC002048F20F032DE9F04F994204462B
:10421C000E4689B000F0A48049F20403994200F0E4
:10422C00AB8048F20D03994240F0B880BC4B1A6841
:10423C000393012A2DD14069002840F08C80D4F8DA
:10424C0018A0D4F800804FEA4A1318460193FEF7E1
:10425C008BFD074610B3242000FB0AF0FEF784FD0B
:10426C000546E8B1042600EBCA0307F120090293C6
:10427C00029BAB4218D1BAF1000F05D0019B3B4415
:10428C009946002349F8043CA64B1F600223039A6D
:10429C0013602068002840F0C781C7E1FEF76CFD71
:1042AC000C22A14B1A60EFE758F8062008EB060128
:1042BC0049F8202C08EB06025268B1F812B0013A0A
:1042CC00042A8CBF0022994B06F1140698BF9A560B
:1042DC00974B49F81C2C1A68964B49F8182C1A68FD
:1042EC0049F8142C0A8A9449042A088849F8102C95
:1042FC0049F80C5C08EB060121D102226A601022FD
:10430C0028812A700A68EA6059F8102C0BF1010018
:10431C001644FEF729FD49F8080C48B15A4608EB3B
:10432C00060102F02BF9002159F8082C02F80B10A9
:10433C0049F8049C5E4409F12009083598E70A23E2
:10434C004FF0240C28816B6085F800C005F110003B
:10435C0002F014F9D8E7FFF71DFF734B186095E7CF
:10436C0043696A2B8EBF5F23744AD35C744A136013
:10437C00744B01221A7059E10369032B07D8DFE84B
:10438C0003F0020802084FF40030FFF797FE6E4B63
:10439C00EFE74FF40030FFF7AFFEF8E701F41043FE
:1043AC00B3F5104FC0683BD1FFF7C4FE0746384643
:1043BC00FFF7D8FE054600283FF46BAF01463346A5
:1043CC002246384600F0F4F9002800F02F8148F21C
:1043DC000C039E4226D8B6F5004F7FF65AAFA6F5D1
:1043EC000046013E0B2E3FF654AF01A353F826F0C6
:1043FC00C14401007545010091460100AF46010022
:10440C00594501004146010041460100B9450100F2
:10441C00DB4401009F4201009F420100E345010083
:10442C00070CC4E749F202039E4200F0CC8049F22B
:10443C0003039E425BD049F201039E427FF429AFF5
:10444C002E6816F4801600F0EE80A368042B40F260
:10445C00E780638A002B00F0E480102B40F0CC80C6
:10446C002420FEF781FC18B30A2343602423037035
:10447C00627C237C04F1240143EA0223038100F1D2
:10448C00100204F1140353F8046B8B4242F8046BD2
:10449C00F9D12423226807930492626804A9CDE918
:1044AC000520E86903685B689847013040F08F800D
:1044BC000220BCE02B68012B40F0B880606900281A
:1044CC0040F0E98002232B60A369AB61AFE02B685D
:1044DC009BB20D2B40F0AA806069002840F0DB8075
:1044EC002B681B0C1B0443F00E032B609FE02B6806
:1044FC0043F400232B602B6823F400332B602369D7
:10450C006C2B07D12B6843F080432B6080236B60AE
:10451C00AB608BE06A2B96BF084A5F23D35CF6E74F
:10452C00D8CB0020DCCB0020D4CB00207E75010042
:10453C00CCCB0020C8CB0020BACC00208375010066
:10454C0000CC0020C6CC0020C4CC00202B689BB231
:10455C00032B6BD16069002840F09D802B681B0CED
:10456C001B0443F00403C0E72B6899005ED52B684D
:10457C0023F000532B60606968B92B6843F4003357
:10458C002B602B6843F480132B602B681B0C1B04D3
:10459C0043F00503A9E76A288EBF5F234C4B1B5CD5
:1045AC006B602B6843F480232B603FE02B689BB23D
:1045BC00062B3BD1606900286DD12B681B0C1B04AA
:1045CC0043F0070391E72B689BB2072B2ED12B6886
:1045DC0043F48033E8E72B689BB2082B26D1636940
:1045EC00002B6DD13B4B43F827402B681B0C1B0455
:1045FC0043F009032B6032E0042B14D11020FEF79A
:10460C00B3FB00283FF454AF022343601023037024
:10461C00227C617C42EA012202816269C26039E734
:10462C000023184636E7206802F0E1F9002009B0B3
:10463C00BDE8F08F274B43F8274063697BB16B2BA8
:10464C000FD128690C2201282B6804D143F0006398
:10465C002B606A60EBE743F480232B606A600120D7
:10466C00E5E723F00200012802D10C236B60DEE7A2
:10467C006A2B8EBF5F23164AD35C6B602B6843F4A6
:10468C008023B7E72B685A02D0D5606918B92B681C
:10469C0043F4000329E76A2817D80D4B1B5C6B60A9
:1046AC00C4E72B68DB01C1D563694BB9206818B12D
:1046BC000120084B43F827402B6843F0007314E7A4
:1046CC006A2B02D8024AD35CE9E75F23E7E700BF15
:1046DC0083750100E0CB002038B5074C054654F833
:1046EC00300038B1FEF748FB002344F8353004EBBA
:1046FC00C504636038BD00BF04CC00204FF0FF330D
:10470C002DE9F743DFF89480019308EBC0090D46BF
:10471C001646D9F8043047F281028969074602F03F
:10472C0068F9044698B3D9F8042022B158F8371028
:10473C00006801F023FF2423174A03FB072304F12D
:10474C00140203F1240153F8040B8B4242F8040BBE
:10475C00F9D1A36822462433A3602B6847F2810168
:10476C001B0C1B0443F00A032B60042002F038F9E5
:10477C002B68DB000DD44FF6FF720B21384601ABD2
:10478C0002F04AF900B12E6003B0BDE8F0830C20B2
:10479C00FAE77720F8E700BFC8CC002004CC002053
:1047AC000122024B00201A70704700BFC7CC0020BA
:1047BC0070B50C4648F281018B42064635D049F261
:1047CC0082018B4240D048F202018B4261D1002C15
:1047DC005FD06369B3F5827F02D0B3F5877F58D180
:1047EC00236823F0005323605569002D4DD12368B5
:1047FC001B0C1B0443F0050323602368DB0001D46E
:10480C00002020E024237343234AD35C022BF7D1EE
:10481C002146304602F010F90028F1D07728EFD06D
:10482C006060236843F480232DE0002CE8D02368DB
:10483C009BB20A2BE4D1506940BB23681B0C1B04B0
:10484C0043F00B03236070BD002CD9D023689BB2BE
:10485C000B2BD5D11569C5B9236843F08063236050
:10486C00FFF73AFF236823F08063236023681B0C57
:10487C001B0443F00C032360236843F400332360D0
:10488C00236843F480132360BAE72846FFF77AFCC9
:10489C00C6E70120D7E700BFC8CC002037B51546C6
:1048AC006FF058020023027304220D4C4373837380
:1048BC00C373027243728372C372024689B20320BD
:1048CC00237002F08DF84FF0FF3301932378AB4245
:1048DC0001D103B030BD01A90020FEF753F9F5E773
:1048EC00E8CD0020012208B511460848FEF702FA6F
:1048FC00002002F06FF828B101220521FFF7CEFF4E
:10490C00002008BD6FF00B00FBE700BF44CC00207B
:10491C0070B5C3680546A72B03D0286802F067F86A
:10492C0008E0032908D0042919D0022902D1012258
:10493C000E4B1A7000200AE00D4E336843B1002470
:10494C00006898472868346002F051F8E0B270BDF6
:10495C000222084B01241860044B1A70F6E7064B30
:10496C001B68002BD9D000689847D6E7E8CD00200B
:10497C0050CC00204CCC002048CC002010B5044674
:10498C00006808B102F033F8054BE2689A4205BFA3
:10499C000120044B0020187004BF034B1C6010BD99
:1049AC001AE1AB15E9CD002054CC00202DE9F041E3
:1049BC00046807460D46002C00F0868001F4704315
:1049CC00B3F5005F42D15F4B1A789846012A31D17A
:1049DC005D4A21681288B2EB114F2BD162686ABB19
:1049EC005A4B1E681EB342F209039D421FD130463A
:1049FC002389802240F8043B04F10A0101F0BEFD3A
:104A0C00802204F18A0106F1840001F0B7FDD4F88C
:104A1C000A31C6F80431D4F80E31C6F80831D4F88E
:104A2C001231C6F80C31D4F81631C6F81031002307
:104A3C0088F80030386801F0DAFF45E047F6FF717E
:104A4C008A420CBF032202221A70F3E7404E3368ED
:104A5C00002BEFD044F2040291420BD8B1F5804FF9
:104A6C00E8D9A1F58042023A022A0BD8DFE802F01D
:104A7C00454F590044F20113994203D044F20123EB
:104A8C009942D7D1334F386808B101F0B0FF44F2E6
:104A9C0001239D42304B1AD102223C6094F85140C4
:104AAC001A70E30702D50220336898472B4D14F097
:104ABC00180433682A781AD01AB9052098470123AC
:104ACC002B700120336898470020BDE8F08144F238
:104ADC00011295420BBF012200223C603C600BBFCF
:104AEC0094F8414094F83D401A701A70D9E7002AA6
:104AFC00E7D0062098472C70E3E7194C206808B1E2
:104B0C0001F075FF3B68032023603368DBE7154C2D
:104B1C00206808B101F06BFF3B6804202360336808
:104B2C00D1E72278032A85D8DFE802F002050709CD
:104B3C00072098477EE70820FBE70920F9E70A20C1
:104B4C00F7E700BFECCD0020BCCC002068CC0020E7
:104B5C0058CC00205CCC0020EBCD0020EACD00200E
:104B6C0064CC002060CC00200123034A1360C207F0
:104B7C0044BF024A137070476CCC0020EDCD00206E
:104B8C0038B500234FF4FA650B4C236023682BB91E
:104B9C004FF47A7001F077FE013DF7D1236813B919
:104BAC006FF0730006E0054B1B78012B14BF00203F
:104BBC006FF0040038BD00BF6CCC0020EDCD0020A0
:104BCC0000220023F0B52B4D2B4EC5E90223C5E97D
:104BDC0004234FF40052294B00241A6000F11C03EB
:104BEC00336043F0807343601C230372202301273E
:104BFC006FF07F024372224B04704470C270847257
:104C0C00C472877040F080702C70C3F81006C3F823
:104C1C0014461C4B93B0224620461B491C70FEF7D1
:104C2C006BFD2146402201A801F0B3FC0223029344
:104C3C0004230B93052301A811930997FEF774FD28
:104C4C00124B009436681C601B680093009BFFF7A6
:104C5C0097FF044630B103232B70FEF785FD2046E9
:104C6C0013B0F0BD32680A4B9A42F8D06FF00404CE
:104C7C00F3E700BFE8C6002070CC002074CC002005
:104C8C0000A00240EDCD0020754B010010560040F5
:104C9C00010000A537B50125074C4FF4FA7065608B
:104CAC0001F0F1FD002363600193256023680193FB
:104CBC00019B03B030BD00BF1056004070B50D46CF
:104CCC0000B3154E327802BB012913D1C16842687A
:104CDC000A4441690A44C1690A4442F21B018A42EE
:104CEC0016D90068FFF76CFF044630B1FFF7D2FF0E
:104CFC00204670BD01F0DFFEF6E7084B1D70012366
:104D0C003370F5E76FF00D04F2E74FF0FF34EFE787
:104D1C006FF00B04ECE700BFEECD0020EFCD0020D0
:104D2C000E4B70B553F82040013053F82060A6426A
:104D3C0000D870BDD4E900352846984765B1EB68BA
:104D4C0030B10028B8BF4042FF28A8BFFF20187020
:104D5C005A7842F001025A700834E8E7D473010023
:104D6C0070B5054610B90024204670BD0378002BA1
:104D7C00F9D00F4A0F4C1646944208D10D4CB44250
:104D8C00F1D0204601F0B2FE50B91834F7E72046B6
:104D9C0001F0ACFE10B12368AB42E5D01834EBE760
:104DAC002846216801F0CEFB0028EED1DCE700BFDD
:104DBC0048700100E86F01000023012210B586B095
:104DCC00CDE904230F220193CDE9023218230B4ABB
:104DDC000B4C03FB00234FF4A0720A4904EBC014E4
:104DEC0002FB001100932046074B00F0B7F8637BE1
:104DFC0023F00403637306B010BD00BF78CC002011
:104E0C0000C70020F8D5002085500100012208B50C
:104E1C00094B02201A70FFF783FF00F0C7FF032035
:104E2C00FFF77EFF00F0CAF8FBF7C4FB034A137BC5
:104E3C0023F00103137308BDF0CD002080C70020C0
:104E4C000248034A0021121A01F0A3BBB0C500208E
:104E5C00F4CD002080B5304BA6B003F5006888F384
:104E6C00088883F30A880024E0232C4D2C4E85F807
:104E7C002230EC772C766C76AC7685F820406B6A19
:104E8C00DFF8B09043F4E0236B6285F82340FCF725
:104E9C0025FDFCF70BFB4FF0FF33AB62EB62FCF72D
:104EAC00BFFEFCF779FD40F20113ADF8243006ABE0
:104EBC00B360CDE91F4401F018FE2046FFF730FF28
:104ECC000120FFF72DFF00F04BFC164B164D059300
:104EDC00012316494FF48062CDE9034328464B4623
:104EEC00CDE901440094F56100F038F807466A7B7F
:104EFC00284622F004026A7301F009FF2046FFF7EE
:104F0C005BFF0B4B4A4639462846F3603475C6F8AE
:104F1C000480FCF7C5FB00BF38D7002000ED00E093
:104F2C0078CC0020EE75010080C70020F8D100205D
:104F3C0000C70020194E010038B5064C064DAC4296
:104F4C0001D3002038BD2046D4E9011201F0F3FD55
:104F5C001434F4E798C50020ACC500202DE9FF41BE
:104F6C000E9E00F1580506730426C0E9165500255F
:104F7C00044646730D9EC0E906558673D61D0C9AE1
:104F8C0026F00706C0E919168560C573C56602923E
:104F9C000B9A01EB060801920A9A00924246FCF722
:104FAC0063FB054B65659B6803B11B6F404623672C
:104FBC0004B0BDE8F08100BF78CC00202DE9F047AB
:104FCC002A4E2B4DB04686B0B54205F1300410D3B5
:104FDC0000F0D0F94FF4004940F2E7360027244C9A
:104FEC00DFF890A0444521D306B0BDE8F04700F0AF
:104FFC009BBB54F8043C059354F8103C049354F8B0
:10500C00143C039354F8183C029354F81C3C019341
:10501C0054F8203C009354E90A2354E90C01FFF79F
:10502C009DFF54F8303C5D652546CDE7636A5A1CFC
:10503C000DD03046394623EAE373C9FB0301B9426C
:10504C0008BFB042256804D1284600F07FFA3034FE
:10505C00C8E74FF47A720023FBF7EAF802460B46D6
:10506C0005F11800514600F0F1FCF0E798C500205E
:10507C0098C500203B6D010008B5094C4FF020028B
:10508C00EFF3118382F31288BFF36F8F01F0F1FEFF
:10509C00A061FCF77FF90028F0D1FCF70DFAEDE7E1
:1050AC0078CC00202DE9F341044616461F464FF0FC
:1050BC002003EFF3118883F31288BFF36F8FC3685B
:1050CC00354A6BB180689168884219D056EA07035B
:1050DC0018D188F31188BFF36F8F6FF00F000CE0BD
:1050EC00916891F90E100133E36093682161A3601C
:1050FC0088F31188BFF36F8F002002B0BDE8F081F8
:10510C002169F0E791F90E1090F90E306FF07E02E4
:10511C009942A8BF19469142B8BF11468B422FDD68
:10512C0000F084FA054622464146CDE900671B484B
:10513C0000F068FA0028E0D04FF02003EFF311865E
:10514C0083F31288BFF36F8F236821699C420AD0C6
:10515C004BB193F90E309942A8BF19466FF07E03FC
:10516C009942B8BF1946A06890F90E30994209D1FE
:10517C006DB13146094800F0EBF86FF00A00BCE75E
:10518C000025D0E700F052FA0028F2D1F0E786F3C0
:10519C001188BFF36F8FF0E778CC0020F1CD0020A1
:1051AC0038B583680446002B36D01E4A9268934269
:1051BC0035D1DA7B013ADA73C368012B05D9013B8F
:1051CC00C36000F0B1FA002038BD4FF02003EFF3BC
:1051DC00118583F31288BFF36F8F0169806890F992
:1051EC000E30994201D000F021FA204601F003FE66
:1051FC00A06058B190F90E2022610022826701F064
:10520C0086FD2946084800F0A3F8DAE7E06085F34C
:10521C001188BFF36F8FD4E76FF01500D4E74FF010
:10522C00FF30D1E778CC0020F1CD002038B5044612
:10523C004FF02003EFF3118583F31288BFF36F8FC8
:10524C0001F0D9FD48B10022826701F060FD2946CA
:10525C00BDE83840044800F07BB8D4E902329A42E9
:10526C0018BF0133A360F2E7F1CD002037B5144627
:10527C001D464FF02003EFF3118183F31288BFF327
:10528C006F8F836843B1013B836081F31188BFF357
:10529C006F8F002003B030BD54EA050306D181F3B3
:1052AC001188BFF36F8F6FF00F00F3E70246CDE963
:1052BC000045024800F0A6F9ECE700BFF1CD002054
:1052CC0010B5084C23685BB1FDF7CCFB0346206896
:1052DC00054A03440021BDE81040136101F0D9BD1B
:1052EC0010BD00BFA8CC002078CC0020F8B5044637
:1052FC000D464FF02003EFF3118683F31288BFF3B2
:10530C006F8F00224FF4004740F2E73000210D4B25
:10531C00E7FB04011A6100234FF47A72FAF788FF55
:10532C00002C094B09DC1860084B1D60FFF7C8FF07
:10533C0086F31188BFF36F8FF8BD0228B8BF022027
:10534C00F1E700BF78CC0020A8CC0020A4CC002032
:10535C0049B9EFF3058030B9054BDA699B689A427D
:10536C0001D0FCF72BB981F31188BFF36F8F704715
:10537C0078CC00204FF02003EFF3118183F31288D7
:10538C00BFF36F8F044B9A68D37B013BD37381F3CC
:10539C001188BFF36F8F704778CC002038B5024668
:1053AC000C4801F0AAFC0C4D044600B9EC68AB6843
:1053BC004AB95A7BD20606D1A26922B9DA897F2A68
:1053CC0001D9EB6138BD9C4201D0FFF779FFEC614C
:1053DC00F8E700BF98CC002078CC002070B590F98D
:1053EC000D200146002A437B04DA03F07F0343734C
:1053FC0001F037FC174A4B7B104663F07F034B736D
:10540C0050F8203F556A834208BF0023002B38BF59
:10541C000023CBB191F90E6093F90E40A6420FD048
:10542C00A41B002C0CDD5868C1E9003001605960E8
:10543C009068BDE87040431A58425841FFF7AEBF20
:10544C00AB4201D01B68E4E7C1E900052960516259
:10545C00EEE700BF78CC0020014670B54FF020037A
:10546C00EFF3118483F31288BFF36F8F164B174A37
:10547C0098681568A8421D4606D1FFF721FF84F3F2
:10548C001188BFF36F8F70BD00261660104A12682A
:10549C00BAB1C2897F2A14D8427BD20611D10D4AE7
:1054AC0090F90E60126896420BDB0B4A904208D0C2
:1054BC001A698A4202DCFFF791FFDEE7521A1A6181
:1054CC00DDE700232B61DAE778CC0020A0CC0020AC
:1054DC00A8CC0020A4CC002000C7002070B490F908
:1054EC000D30427B002B2DDBD3062BD183694BBBBC
:1054FC00154962F07F0242730A4652F8204F4D6AFA
:10550C00944218BF2346002B38BF0023ABB190F94F
:10551C000E6093F90E40A6420BD0A41B002C08DDA4
:10552C005A68C0E9003210605860002070BCFFF768
:10553C0035BFAB4201D01B68E8E7C0E90025286005
:10554C004862F2E770BC704778CC002010B54FF081
:10555C002002EFF3118482F31288BFF36F8F427B2A
:10556C00510704D484F31188BFF36F8F10BD22F060
:10557C0004024273FFF7B2FF2146BDE81040014818
:10558C00FFF7E6BEF1CD002008B590F90D200146DD
:10559C00002A437B04DA03F07F03437301F061FBC1
:1055AC00044B9868431A58425841BDE80840FFF72D
:1055BC00F5BE00BF78CC00202DE9F041064614461C
:1055CC001D464FF02003EFF3118783F31288BFF3CE
:1055DC006F8F01F0CEFB87F31188BFF36F8F6B1CBD
:1055EC0008BFB4F1FF3F08D022462B4606F1180045
:1055FC000349BDE8F04100F029BABDE8F08100BFD5
:10560C003B6D010010B50C46064B11469868064BD5
:10561C001860DDE90223FFF7CFFF2046BDE81040FC
:10562C00FBF7CCBF78CC0020A0CC0020F8B504460A
:10563C004FF02003EFF3118683F31288BFF36F8FC3
:10564C00437B49B2DA0638D18569002D35D103F098
:10565C007F03437301F005FB437B817363F07F038E
:10566C0043731748034653F8207F9F4218BF3D46AB
:10567C00002D1A462B4638BF0023476AC3B193F955
:10568C000E50A94210D06D1A002D0DDD5A68C4E9D8
:10569C00003214605C600120FFF780FE012086F36D
:1056AC001188BFF36F8FF8BDBB4201D01B68E5E7D3
:1056BC00C4E900273C604462EDE70020A173EEE7EB
:1056CC0078CC002070B50446183001F0BCFB4FF0CC
:1056DC002003EFF3118683F31288BFF36F8F94F9D5
:1056EC000D20637B002A05DA03F07F0320466373E9
:1056FC0001F0B7FA0B4D637BA86843F0100363739A
:10570C00031B58425841FFF749FE86F31188BFF33B
:10571C006F8FAB68A34203D1BDE8704001F0E3BAD0
:10572C0070BD00BF78CC002010B54FF02003EFF314
:10573C00118483F31288BFF36F8F084B00209A6893
:10574C00D37B0133D373FFF729FE84F31188BFF3A6
:10575C006F8FBDE8104001F0C6BA00BF78CC0020B6
:10576C000021044B084603F12002C3E90822FFF78D
:10577C00BDBD00BF78CC0020F8B54FF02003EFF38F
:10578C00118483F31288BFF36F8F1B498868437BA6
:10579C0003F07F03437301F064FA08468A68537B75
:1057AC0063F07F03537350F8203F4E6A834208BF67
:1057BC000023002B38BF0023CBB192F90E7093F964
:1057CC000E50AF420FD0ED1B002D0CDD5968C2E915
:1057DC0000310A605A600120FFF7E0FD2046BDE869
:1057EC00F840FBF7EBBEB34201D01B68E4E7C2E91B
:1057FC00000632604A62EEE778CC00202DE9F041D9
:10580C0004460D4654EA050104D1FFF7B5FF00200C
:10581C00BDE8F0816FF001010A1A4FF0FF3161EB26
:10582C000503012A73F100032ADA01F04CFB061977
:10583C004FF02003EFF3118883F31288BFF36F8FBF
:10584C00114F124BB8681860FFF79EFEB8681049EC
:10585C0022462B46183000F0F9F8BA684046537BC4
:10586C0043F010035373FBF7A9FE01F02CFB301A25
:10587C0066EB0601012871F10003B8BF0020C7E7F1
:10588C006FF00106361AD3E778CC0020A0CC0020AC
:10589C003B6D010008B50B46013308BFB0F1FF3F6B
:1058AC0006D1084B9868FFF70DFF4FF0FF3008BD8D
:1058BC00FFF7A4FF4FF47A7380FB0323D00B40EA6D
:1058CC004340F4E778CC0020014B9868704700BF48
:1058DC0078CC00202DE9F04104464FF02003EFF383
:1058EC00118683F31288BFF36F8F437B1A0705D59C
:1058FC0086F31188BFF36F8FBDE8F08123F020028F
:10590C0042F00801D20920D14173A36813B120469B
:10591C0001F0AFF904F1180001F095FA4FF000080E
:10592C0004F15807A56DBD4200D0B5B90120FFF7B1
:10593C0035FD104B9B68A342DAD1EFF30583002BA6
:10594C00D6D13046FBF73AFED2E703F05F0343F0C3
:10595C000803437301F085F9D7E7284601F089F96C
:10596C0005F1180001F06FFA2846C5F87880FFF7AA
:10597C00B5FDD7E778CC002008B50648064A07499C
:10598C00121A00F0FBFDBDE80840054A054906481F
:10599C0000F0F4BD00C50020ACC500204876010025
:1059AC00000000003076010000C50020034B1B688E
:1059BC000BB9FDF757B80020704700BFACCC0020E6
:1059CC0030B5036868B10A4A5268904209D043B1B5
:1059DC00D3E90421D0E90445121945EB0101C3E9CF
:1059EC000421426813605A600023C0E9003330BDC3
:1059FC0080C5002038B5134B1C689C4208BF00249E
:105A0C00FFF7D4FF0546BCB1D4E90401401B61EBA0
:105A1C00E571012871F1000311DB6FF000420023E6
:105A2C00824273EB010400DA1046074B1B6913B179
:105A3C009842A8BF184638BD6FF00040F5E700202B
:105A4C00F3E700BF80C5002078CC0020B3F1FF3F06
:105A5C0008BFB2F1FF3F2DE9F74F044692469B4633
:105A6C0073D081604FF02003EFF3118583F312881C
:105A7C00BFF36F8F6FF001034FF0FF32B3EB0A08E7
:105A8C0062EB0B09B8F1000F79F100011CDB304817
:105A9C00D0E900105B1A62EB0002B3EB0A0662EB72
:105AAC000B07012E77F10003BCBF01260027C4E9C8
:105ABC000467284AD2E9003C93421ED1C4E9002C69
:105ACC00CCF8004054602DE0FFF770FF1AF1010391
